:1000000000180020C1000000790700003D07000033
:100010003D0700003D0700003D0700003D070000D0
:100020003D0700003D0700003D0700007907000084
:10003000790700003D07000049150000191600006F
:1000400079070000790700007907000079070000B0
:1000500079070000790700007907000079070000A0
:100060007907000079070000790700007907000090
:10007000A51800007D190000551A0000790700003E
:100080007907000079070000790700007907000070
:100090007907000079070000790700007907000060
:1000A000110B0000790700007907000079070000B4
:1000B0007907000079070000790700007907000040
:1000C000F8B500F05DFB0821474A484B1A60484AE2
:1000D000484B1A60484A494B1A60494B1A780A4201
:1000E00002D01A780A431A702A22464B46481A70E0
:1000F00000234649464C1A188A4203D2E558043375
:100100001560F8E70021434B434A934201D202C3F2
:10011000FBE70023414A424958589446985004331B
:10012000C02BF9D100210326FF2580248A083D4BEE
:100130009200D2180B002F003340DB009F40106864
:100140000131B84307002000984003003B4313608F
:100150002029EBD16246344B1A608A22334B1A7045
:10016000334B663A5A707C321A709E3A9979114232
:10017000FCD0102299791142FCD10C209A792C499B
:100180000240082AFAD1053A0A713D324A71203AF2
:1001900099791142FCD0402299791142FCD025492D
:1001A000254A11602021224A117014399A790A4097
:1001B0000C2AFBD1214A224B1A60224A224B1A6098
:1001C0000022224B1A60224B07321A60214A224B2E
:1001D0001A6062B600F070FB01F096FE00F0D6FAED
:1001E00001F024FAFEE7C046300004F034800440F9
:1001F000823F0000388004400100000F3C80044032
:1002000002D0074000E0074020FDFF1FFCFDFF1F5C
:10021000E0210000FCFDFF1FC000002000F9FF1FCF
:100220000000000000E400E008ED00E0005006409F
:10023000004006400000011044800440C000050555
:10024000048004407FBB000014E000E018E000E000
:1002500010E000E00000202020ED00E0FFFFFFFFA5
:10026000FFFFFFFFFFFFFFFFFFFFFFFFFFFFFFFF9E
:10027000FFFFFFFFFFFFFFFFFFFFFFFFFFFFFFFF8E
:10028000FFFFFFFFFFFFFFFFFFFFFFFFFFFFFFFF7E
:10029000FFFFFFFFFFFFFFFFFFFFFFFFFFFFFFFF6E
:1002A000FFFFFFFFFFFFFFFFFFFFFFFFFFFFFFFF5E
:1002B000FFFFFFFFFFFFFFFFFFFFFFFFFFFFFFFF4E
:1002C000FFFFFFFFFFFFFFFFFFFFFFFFFFFFFFFF3E
:1002D000FFFFFFFFFFFFFFFFFFFFFFFFFFFFFFFF2E
:1002E000FFFFFFFFFFFFFFFFFFFFFFFFFFFFFFFF1E
:1002F000FFFFFFFFFFFFFFFFFFFFFFFFFFFFFFFF0E
:10030000FFFFFFFFFFFFFFFFFFFFFFFFFFFFFFFFFD
:10031000FFFFFFFFFFFFFFFFFFFFFFFFFFFFFFFFED
:10032000FFFFFFFFFFFFFFFFFFFFFFFFFFFFFFFFDD
:10033000FFFFFFFFFFFFFFFFFFFFFFFFFFFFFFFFCD
:10034000FFFFFFFFFFFFFFFFFFFFFFFFFFFFFFFFBD
:10035000FFFFFFFFFFFFFFFFFFFFFFFFFFFFFFFFAD
:10036000FFFFFFFFFFFFFFFFFFFFFFFFFFFFFFFF9D
:10037000FFFFFFFFFFFFFFFFFFFFFFFFFFFFFFFF8D
:10038000FFFFFFFFFFFFFFFFFFFFFFFFFFFFFFFF7D
:10039000FFFFFFFFFFFFFFFFFFFFFFFFFFFFFFFF6D
:1003A000FFFFFFFFFFFFFFFFFFFFFFFFFFFFFFFF5D
:1003B000FFFFFFFFFFFFFFFFFFFFFFFFFFFFFFFF4D
:1003C000FFFFFFFFFFFFFFFFFFFFFFFFFFFFFFFF3D
:1003D000FFFFFFFFFFFFFFFFFFFFFFFFFFFFFFFF2D
:1003E000FFFFFFFFFFFFFFFFFFFFFFFFFFFFFFFF1D
:1003F000FFFFFFFFFFFFFFFFFFFFFFFFFFFFFFFF0D
:10040000FFFFFFFFFFFFFFFFFFFFFFFFDEF9FFFF23
:1004100010B5064C2378002B07D1054B002B02D0DA
:10042000044800E000BF0123237010BDFCFDFF1F46
:1004300000000000E0210000084B10B5002B03D0A5
:100440000749084800E000BF07480368002B00D1B7
:1004500010BD064B002BFBD09847F9E700000000C9
:1004600000FEFF1FE0210000FCFDFF1F0000000058
:10047000F8B50F0004005021580700D504310820BA
:10048000034200D00143002A01D101231943002572
:10049000104E21706B00F15A0F4801F02BFC87427F
:1004A00004D30E4E735D0025637008E06B1C1E2B99
:1004B000F7D01D00EEE76B1C1E2B08D01D00054A6F
:1004C0006B00D15A064801F015FC8742F3D3735DE7
:1004D000A370F8BD661F000000366E01A21F000069
:1004E000006CDC0210B50400FFF7C2FF200010BD55
:1004F00003689971026813785BB2002BFBDA90797C
:10050000C0B2704710B50121052000F061F901214A
:10051000092000F05DF90121052000F039F90021E2
:10052000092000F035F910BD37B5174C200000F058
:10053000A9F896210023012289016846FFF7D2FF1E
:100540006B461B8801AA13806B469B782000937032
:100550006B461D78A368002B07D072B60B49A468C0
:100560000B682340C3600B6062B60368DD700AC885
:100570001B7A0A20D3185B784B70012100F028F910
:10058000322000F07FF937BD20FDFF1F80E100E041
:1005900010B5FFF7B7FFFFF7C7FF10BD70B50D002F
:1005A000040000210A2000F0F3F8322000F06AF97C
:1005B00080212143064C2000FFF79AFF29002000EC
:1005C000FFF796FF01210A2000F0E2F870BDC04657
:1005D00020FDFF1F70B5050000210A2000F0D8F8AB
:1005E000322000F04FF9094C29002000FFF780FF6E
:1005F000012000F047F900212000FFF779FF0400F7
:1006000001210A2000F0C4F8200070BD20FDFF1F6A
:1006100010B501003920FFF7C1FF10BD10B5FFF77D
:10062000B7FFFA20400000F02DF90121042000F06E
:10063000CFF8A620FFF7ECFF10BD10B53920FFF76B
:10064000C9FF10BD10B50121042000F0A1F8FFF78B
:10065000F4FF0B4C00220100200001F001F8200003
:10066000FA24640000F0EAFF200000F00BF90021FA
:10067000042000F08DF8200000F004F910BDC04601
:100680004CFDFF1F416830B50A684B681468174D70
:1006900023431360502302680C24D37000230268A4
:1006A0009370036841681B78037CCA18127F083373
:1006B00062439B00AA185B5852681360427C8B18F7
:1006C0001B7C043263439200EB188A185B68526803
:1006D0001A60837CCA18283212780A3354439B006C
:1006E0002C19CB1862685B68136030BD04200000D1
:1006F00080220021036A52041B6810B59A600368C7
:10070000997003681B78C3691C68A3681343A360CE
:10071000036A1C68A3681343A36003230375406A3C
:100720000A0003681B68984710BDFFFF10B5024818
:10073000FFF7DEFF10BDC04620FDFF1F70B580250E
:100740008026ED02F6000B4C23682B4201D000F00E
:10075000DFF92368334201D001F0A4F823681B05B8
:1007600001D501F00BF92368DB04ECD501F072F937
:10077000E9E7C0463480044010B5FFF7DFFFFFFF14
:100780000022014B1A607047008104407047FFFF50
:1007900010B51A2818D80C2358430C4A835810183F
:1007A0001C7D027A224205D0002901D01A710BE08B
:1007B0001A7209E043681A68002902D003210A432B
:1007C00001E002218A431A6010BDC04604200000E7
:1007D000F0B51A282FD80C2217004743164CE519FC
:1007E0006B682600012901D0042911D150433458E7
:1007F0003018257D027A20202A432275A222520039
:100800001A601A68042901D1024313E0824311E0FF
:1008100038592C7A027DA24302758022002908D023
:10082000022902D10422FF3204E00022032901D16F
:10083000812252001A60F0BD0420000072B60C4BF9
:100840001A680C4B18680C4B1B6862B65B0104D528
:10085000322393429B415B42C018084B9A1A084BC3
:100860005A43FA239B005843920D10187047C04614
:1008700018E000E018FEFF1F04ED00E07FBB000061
:100880005555010070B50400FFF7D8FF0500002C96
:100890000FD0FFF7D3FF074B401B984206D9013C0E
:1008A000002C06D0FA239B00ED18F2E700F02AFF97
:1008B000EFE770BDE703000080221E4BD20510B5A4
:1008C0001A608022002012061A601B4B1B49186018
:1008D0001B4B1C4A1960282313601B4A1B4C1360D6
:1008E0001B4A13601B4A13601B4A13601B4A1360A8
:1008F000092222601A4C20601A4C21601A4C236095
:100900001A4C23601A4C22601A4C20601A4801606D
:100910001A490B601A490B601A4B1A6000F042FF2B
:100920001920FFF7AFFF00F0E1FB1420FF30FFF7C5
:10093000A9FF10BD00E100E004800340FFBF0000FC
:10094000088003400C800340148003400080034073
:100950001C800340248003402C80034034800340EB
:1009600004900340089003400C900340149003400F
:100970000090034004A0034008A003400CA00340E3
:1009800014A0034000A003400223F0B50A4A0B4E16
:100990001478C8272343DB00F518686008480578F9
:1009A000002D00D1403F09040F43F75001235D4063
:1009B0005C4005701470F0BD84FEFF1F00F8FF1F3F
:1009C000FCFEFF1F431E10B50020032B0ED872B68D
:1009D000074A99008858002807D044685B008C506B
:1009E000044904885A5A121B5A5262B610BDC046B6
:1009F00074FEFF1FAA000020431E0020032B09D80D
:100A000072B6054A9B009B58002B02D001305B68F0
:100A1000FAE762B67047C046C8FEFF1FF8B572B667
:100A20000123174A082594461E00164964465A1E9B
:100A3000A25C2A421AD05F017C589A00002C05D192
:100A4000CB1908305860104BCB5109E03243D2002B
:100A50005458002C0AD18B18083058600B4B8B501F
:100A60000B4A1378013B137062B608E00133052B83
:100A7000DCD162B60022064B1A7000F0ADFBF8BD67
:100A80007421000000F8FF1F88004000C8004000EB
:100A9000F2FEFF1F421E10B5032A30D80223800049
:100AA0001843174BC0001B1872B6164CA05C0328E5
:100AB0000BD801F081F816040207052012E0083374
:100AC00002200FE0083304200CE00F489200145875
:100AD0000E4B002C01D1115001E098584160995003
:100AE0000CE00320A0540A0008325A60C8221807FC
:100AF00000D4403A098809040A431A6062B610BD5E
:100B000000F8FF1F30FEFF1FC8FEFF1FD8FEFF1FAB
:100B1000F7B5B64B1C781D000423E4B21C421DD06F
:100B2000B34B1B78002B16D0B24A1378DBB2002BE4
:100B300005D0013BDBB21370002B00D100BEAE4AE2
:100B40001378DBB2002B06D0013BDBB21370002B15
:100B500001D100F0A9FC0422A44B1A700822224003
:100B600000D159E2A54BA64F1B78DBB29C08E400EC
:100B70001D093C19002D00D0DFE122686368900652
:100B8000000F01380C2800D9D3E101F01FF89601BD
:100B90009601D201D201D201D201D201D201AF011C
:100BA000D201D201D2010D001A68964E5B689649B7
:100BB000736000230B600121944832602060944CE4
:100BC00092B22170934C3B61BB610190A24218D854
:100BD000D020C000824200D3E7E081204000824262
:100BE00000D1C4E006D8802A00D1A9E0822A00D131
:100BF000ABE0F7E0884B9A4200D1C7E0FF33FF3308
:100C00001AE08648824200D154E110D888231B01A3
:100C10009A4200D18EE080339A4200D0E2E03C005C
:100C20003D00B278724B20341A70A03508E07C4940
:100C30008A4200D1CEE07B4B9A4200D114E1D1E050
:100C400080222368134203D06068083800F0C4FA99
:100C50000834AC42F4D100242500734BE05800283E
:100C600005D04368009300F0B7FA0098F7E76E4BA1
:100C700018516E4BE0506E4BE058002805D0436889
:100C8000009300F0A9FA0098F7E7694B694A1851F8
:100C9000694BE0506B00D052684BE85C0238032887
:100CA00007D800F089FF02040204002200E00122BC
:100CB0005A5501350434042DCFD100230124604D51
:100CC0002B70604B6049621EE3188A5C9B001A70AF
:100CD00008231A4220D000F061FA6301002805D0F1
:100CE000FA1808305060594AFA5003E0F8502B784F
:100CF00001332B7000F052FA0122A3001343DB00F2
:100D0000002805D0FA1808305060019AFA5003E024
:100D1000F8502B789B182B7002210023A20011435E
:100D2000C9007B5003210A438A400134BB50052C83
:100D3000C7D19AE02E4B464C1B7823700B0095E0F0
:100D4000434C23706370022390E07F22B0880240FE
:100D5000042A47D83E4C9200237063703D4BD21852
:100D6000022312781A4200D180E021707EE07F23B6
:100D7000B2881A40042A35D87388002B32D1022059
:100D80003449920052181178814329E07F23B288B8
:100D90001A40042A26D87388002B23D102202D491B
:100DA00092005218117801431AE07288B1882A4BD8
:100DB0005C68002C16D01888904209D15888884267
:100DC00006D1120A032A01D123784FE01B894DE096
:100DD0000C33EDE7214A1168214A1160B178214AAC
:100DE000117042E00F221B4B1A7063E08020074015
:100DF000FBFEFF1F85FEFF1FFDFEFF1F902007402B
:100E000000F8FF1FE8FEFF1F1CFEFF1FC800400088
:100E1000FCFEFF1F810600000203000021200000ED
:100E2000212200002123000074FEFF1F20FEFF1F6F
:100E3000C8FEFF1FAA000020D8FEFF1F30FEFF1FC4
:100E4000F2FEFF1F30C8011074210000880040002E
:100E5000F3FEFF1FC02007407821000018FEFF1F8F
:100E6000BC0000200CFFFF1F00231C00F5889D42E2
:100E700000D91D002E00402D00D940262000310051
:100E8000FFF782FDA419AD1B03D12F00402E04D023
:100E900010E04027AF4200D92F0020003900FFF7B3
:100EA00073FDE419ED1B01D1402F03D1764B1C607B
:100EB000764B1D800122764B3AE07649764A0988C6
:100EC000914210D100227549985C88540132072A5A
:100ED000FAD10B68862B02D1714B08321A700021AF
:100EE0000800FFF751FD6F4B236022E0664F3E681C
:100EF000002E13D0654B1C882500402C00D94025BE
:100F000029003000FFF740FD641B604BA4B21C8039
:100F1000002C01D1402D00D174193C60A0225D4B02
:100F2000D2001988914204D100225A709A785E4BFF
:100F30001A700122564B1A706AE008226068013D5F
:100F40000838EDB2134037D000F046F95749A800F1
:100F50004258574B002A1CD0566846501100585D25
:100F60000831616003280BD800F026FE0204060851
:100F7000032104E0022102E0052100E0042159558B
:100F80000821C8230C4200D1403B128812041343AD
:100F90003DE0585D032808D800F00EFE3A3A0204FE
:100FA000002200E001225A5532E008221440621E5D
:100FB000944102345C552BE02268110C8AB2028005
:100FC00000291ED03B4943804360AB005F583A4E36
:100FD000002F01D1585001E0F158486037496D00A9
:100FE000F0506B5AD2186A5200F0D8F8002802D09C
:100FF0000830606005E0324A2060137801331370D6
:1010000006E008231C4201D12E4B00E0254B236053
:1010100008222D4B1A707CE5012004421ED00223C9
:101020001B49284C0B70294B294E1A70294B1C6008
:101030009C60294C1A61DC600D249A615E60274B2C
:101040001C70FF23264C2370174C2B702270254AEE
:1010500013709F22244B1A70087013E063B2002BA8
:1010600004DA0D221D4B1A7080232B7002221442C9
:1010700004D01B490B78DBB20B702A7010231C4282
:1010800000D02B70F7BDC0461CFEFF1FF0FEFF1FF7
:1010900094200740E8FEFF1F21200000B40000203C
:1010A00085FEFF1FC800400098200740C8FEFF1FB4
:1010B00030FEFF1F74FEFF1F20FEFF1FAA0000204E
:1010C000F2FEFF1F880040008020074084FEFF1FC3
:1010D00034FEFF1F00F8FF1F88FEFF1FC0200740DF
:1010E000882007408C2007408420074010B500F07E
:1010F00023FD002211001B4BD1509818083241608B
:10110000882AF9D180201849C0020A6802430A607F
:101110001A0A1649D2B20A701A0C1549D2B20A70CC
:10112000144A1B0E1370FF23134A00201370134A36
:1011300013491370134A137001220A701249087080
:1011400012490A70124A116899430B0070210B432F
:10115000136080220F4B52041A6010220E4B1A703B
:1011600010BDC04600F8FF1F348004409C2007409B
:10117000B0200740B4200740802007408820074067
:10118000942007401020074000210740842007409A
:1011900018E400E000E100E00821074070B572B6F5
:1011A0000B4D2C68200000F091FE0B2802DD62B68A
:1011B00000200CE080231B06C3409C432C6062B6D9
:1011C00048235843034B181800230360436070BD45
:1011D00048FDFF1FC0F9FF1F10B504000E4848214D
:1011E000201A00F0FDFC0B2814D80C4B1B78002BA8
:1011F00007D00B4B1B78002B03D02000FFF70EFC11
:1012000008E072B680231B06C340064A11680B43F0
:10121000136062B610BDC046C0F9FF1FF2FEFF1F8B
:10122000FBFEFF1F48FDFF1F70B5114D2B68002B03
:101230000CD0286843885A1CC3181C7A03889A4229
:1012400012D3FFF7C9FF00232B600EE0094B1B7878
:10125000002B02D10120404208E00320FFF7B2FB3F
:1012600028600028E5D1F5E74280200070BDC04627
:1012700008FFFF1FFBFEFF1F10B50D4C2368002B5E
:1012800003D02268002A0ED103E00A4B1B78002B02
:1012900002D10120404209E00320FFF793FB2060C8
:1012A0000028EED1F5E75388D318187A10BDC04650
:1012B00008FFFF1FFBFEFF1F054B9888054B1A68B0
:1012C000002A03D0138852889B1AC0187047C04662
:1012D000AA00002008FFFF1F10B50A4B1B78002B47
:1012E0000FD0094C2068002803D0FFF775FF0023BA
:1012F00023600320FFF766FB002802D0FFF76CFF96
:10130000F7E710BDFBFEFF1F08FFFF1F314A012357
:10131000F0B50C00170085B0019002911370039393
:10132000002C53D02C4D2B68002B25D12B4E2C4B51
:101330001B78DBB2002B01D13B7017E00420FFF7D4
:101340005BFB072809D86B461B7B3B70FFF726FF2A
:10135000214B186000280FD13870013E214B002E20
:1013600002D01A78002A04D001221A7001204042CB
:101370002EE000F0C7F9DAE700221A4B29681A704C
:1013800040234A88981A2300844200D903000800A9
:1013900008308018D2184A800022E41A934204D000
:1013A000019EB65C86540132F8E7019AD318019386
:1013B0004B883F2B06D9402304200B80FFF76AFBA4
:1013C00000232B600522084B1A70A9E702983C7095
:1013D00005B0F0BDFEFEFF1F00FFFF1F09750000F6
:1013E000FBFEFF1F04FFFF1FFDFEFF1F07B56B463F
:1013F000D871073301211800FFF788FF0EBDFFFFEA
:10140000012370B50E4C0F4D23702B68002B10D1AB
:101410000D4B1B78002B02D1002020700FE0042020
:10142000FFF7EAFA0728F7D8FFF7B8FE2860002888
:10143000F2D02B6858884023181A0023237070BDFF
:10144000FEFEFF1F00FFFF1FFBFEFF1FF7B5124B45
:101450001B78002B1FD00126104F114B3C681E70CB
:101460000193104D002C09D000262E7063882100B6
:1014700023800420FFF70EFB3E6009E0FFF78EFE9D
:10148000011E04D004202C70FFF704FB00E02E7036
:101490000023019A1370F7BDFBFEFF1F00FFFF1F23
:1014A000FEFEFF1FFDFEFF1F70B50E4B1C78E4B261
:1014B000002C15D10C4D2968002906D04B8804203A
:1014C0000B80FFF7E7FA2C600AE0FFF767FE011ECA
:1014D00003D00420FFF7DEFA02E00122034B1A706A
:1014E00070BDC046FEFEFF1F00FFFF1FFDFEFF1F79
:1014F000EFF3108072B643425841C0B270470028E3
:1015000000D062B67047FFFF10B5FFF7F1FF0C4A3D
:101510001468002C10D063691360002B02D00022E5
:101520009A6101E0074A1360FFF7E9FF00232000FA
:101530006377A3689847E8E7FFF7E1FF10BDC0466F
:1015400010FFFF1F14FFFF1F10B5FFF7DDFF10BDD9
:10155000164930B50B68002B02D18360C36009E0E7
:1015600004681A68944207D20025121B8360C56084
:10157000D8601A60086016E002681C689968121B3F
:10158000026000290CD00C680B00A242F4D28160EA
:10159000C968A21AC160D860C16888601A6002E098
:1015A0008160C36098600223037530BD18FFFF1F80
:1015B00070B5174D2C68002C19D02368002B02D071
:1015C000013B236013E0A268002A00D0D360002111
:1015D00020692A60036821751B68220098476368A8
:1015E000002BE7D023602000FFF7B2FFE2E7FFF710
:1015F0007FFF0022074B1C681A60FFF780FF002C5A
:1016000005D0A5682000FFF7A3FF2C00F7E770BD09
:1016100018FFFF1F28FFFF1F10B5034A136801338F
:101620001360FFF7C5FF10BD18FEFF1F10B5FEF7D2
:10163000F5FFFFF707F800F065F8FAE737B5022580
:1016400004002A00054901A800F084FC23682A0050
:101650005B6801A9200098473EBDC04648210000B4
:10166000F0B50D000F2185B09446134A6944ACB221
:101670002F0C574301345443BBB2260C1C19A41938
:101680003B0C240CDB19E3180A245B085C432D1B7C
:10169000303501390D701D1EE9D16346002B02D093
:1016A0002D2301390B70CA4304ABD21803685B6861
:1016B000984705B0F0BDC0463333000010B5FFF7C2
:1016C0000BFE10BD10B5FFF7D7FD10BD10B5FFF72D
:1016D000ABFD10BD10B5FFF7EFFD10BD10B5FFF766
:1016E000B5FE10BD10B5FFF78BFE10BD10B508009C
:1016F0001100FFF70BFE10BD10B50800FFF776FED6
:1017000010BD704770B5234C2378002B40D10133B6
:101710002370FFF7D1FD002801D0FFF7F2FF00F0A2
:10172000B1F8002801D000F043FA00F017F90028C2
:1017300001D000F03EFA00F07DF9002801D000F061
:1017400039FA00232370EFF30583002B20D1EFF348
:10175000108272B6104D2868002803D00F4C2178F3
:10176000002903D0002A13D162B611E001232370AF
:1017700043692B60002B01D0996101E008490B609F
:10178000002A00D162B60025836845779847257006
:1017900070BDC0462CFFFF1F20FFFF1F24FFFF1F4F
:1017A0001CFFFF1F1B4B1C4A19781C4B082901D139
:1017B000002102E00A2903D12E311160132206E034
:1017C0000C2901D1283100E03C21116012221A605D
:1017D000134B1A78134B002A01D0002200E001229B
:1017E0001A60114B1A78114B012A01D880220CE0A3
:1017F000042A01D8842208E0082A01D8852204E0BE
:10180000102A01D8862200E087221A600122084BA4
:101810001A7070475CFDFF1F08B003400CB0034016
:101820002EFFFF1F20B003405DFDFF1F24B00340CB
:101830002DFFFF1FF8B506000D001700002439002A
:10184000300000F053FA0B003733DBB2092901D81E
:101850003031CBB230002B55390000F0C1F9061EF3
:1018600001D00134EBE72B1958702B005A1B94421E
:1018700006DD1A78295D19702A550133013CF5E718
:101880002800F8BD054B1878054BC0B21A78D3B2C2
:10189000984200D24030C01A7047C046B2FFFF1FC6
:1018A00030FFFF1F30B5234A13799B0611D5224B19
:1018B000D479187819000130E4B200233F2800DC05
:1018C00003001E480078834203D01D48C454DBB295
:1018D0000B70D1781748C9B24BB2002B17DA0379D5
:1018E0005BB2002B13DA174B174C1D782378DBB251
:1018F0009D4202D16C23C37009E001333F2B00D914
:1019000000231248C05CDBB2C0B2D0712370402308
:1019100019420ED0117919420BD000210C4B1970CD
:101920000C4B1B688B4202D00B49097819722C238F
:10193000D37030BD00A00640B2FFFF1F30FFFF1F75
:1019400071FFFF1FB8FFFF1FB3FFFF1F31FFFF1F16
:101950002FFFFF1FB4FFFF1FB1FFFF1F054B1878BC
:10196000054BC0B21A78D3B2984200D24030C01AA8
:101970007047C04624000020BAFFFF1F30B5234A3D
:1019800013799B0611D5224BD479187819000130B0
:10199000E4B200233F2800DC03001E4800788342A5
:1019A00003D01D48C454DBB20B70D1781748C9B2BC
:1019B0004BB2002B17DA03795BB2002B13DA174B0B
:1019C000174C1D782378DBB29D4202D16C23C37083
:1019D00009E00133272B00D900231248C05CDBB299
:1019E000C0B2D0712370402319420ED01179194230
:1019F0000BD000210C4B19700C4B1B688B4202D092
:101A00000B49097819722C23D37030BD00B0064001
:101A100024000020BAFFFF1FE3FFFF1F2C0000205F
:101A200025000020BBFFFF1FB9FFFF1F280000207B
:101A300023000020054B1878054BC0B21A78D3B2AA
:101A4000984200D24030C01A7047C046A000002023
:101A50003500002030B52C4A13799B0623D52B4B3B
:101A6000D479187819000130E4B200233F2800DC53
:101A7000030027480078834203D02648C454D8B2D4
:101A800008702549086800280DD024490978C9B292
:101A90008B4201D35B1A01E05B1A4033272B02DD36
:101AA0001F4B1B780371D1781748C9B24BB2002B7A
:101AB00017DA03795BB2002B13DA1A4B174C1D7837
:101AC0002378DBB29D4202D16C23C37009E001335D
:101AD000272B00D900231448C05CDBB2C0B2D07100
:101AE0002370402319420ED0117919420BD00021E6
:101AF0000E4B19700E4B1B688B4202D00D490978B2
:101B000019722C23D37030BD00C00640A000002005
:101B1000350000205F00002030000020A1000020E0
:101B20005E000020A80000203600002034000020C5
:101B3000A40000209F00002030B585B072B670224E
:101B40004121154B1A70154A1170154A323911701E
:101B500080221A701A7852B2002AFBDA114B1868E8
:101B600062B6114B984201D80A23584301AC0A22AD
:101B70002100FFF75FFE00230C48E15C050000290F
:101B800005D05A008218013351800A2BF5D1013358
:101B90005B002B7005B030BD000002400700024022
:101BA00006000240080002407F969800E6FDFF1FF5
:101BB000704770477047FFFF02B4714649084900FB
:101BC000095C49008E4402BC7047C04603B47146AC
:101BD000490840004900095A49008E4403BC704737
:101BE000002243088B4274D303098B425FD3030A5C
:101BF0008B4244D3030B8B4228D3030C8B420DD36F
:101C0000FF22090212BA030C8B4202D312120902FC
:101C100065D0030B8B4219D300E0090AC30B8B423A
:101C200001D3CB03C01A5241830B8B4201D38B03E8
:101C3000C01A5241430B8B4201D34B03C01A52418D
:101C4000030B8B4201D30B03C01A5241C30A8B42D0
:101C500001D3CB02C01A5241830A8B4201D38B02BB
:101C6000C01A5241430A8B4201D34B02C01A52415F
:101C7000030A8B4201D30B02C01A5241CDD2C309D1
:101C80008B4201D3CB01C01A524183098B4201D34D
:101C90008B01C01A524143098B4201D34B01C01A38
:101CA000524103098B4201D30B01C01A5241C308B0
:101CB0008B4201D3CB00C01A524183088B4201D31F
:101CC0008B00C01A524143088B4201D34B00C01A0B
:101CD0005241411A00D20146524110467047FFE777
:101CE00001B5002000F0F0F802BDC0460029F7D091
:101CF00076E7704703460B437FD4002243088B42AC
:101D000074D303098B425FD3030A8B4244D3030B82
:101D10008B4228D3030C8B420DD3FF22090212BA47
:101D2000030C8B4202D31212090265D0030B8B42C3
:101D300019D300E0090AC30B8B4201D3CB03C01AAD
:101D40005241830B8B4201D38B03C01A5241430B88
:101D50008B4201D34B03C01A5241030B8B4201D378
:101D60000B03C01A5241C30A8B4201D3CB02C01AE3
:101D70005241830A8B4201D38B02C01A5241430A5B
:101D80008B4201D34B02C01A5241030A8B4201D34A
:101D90000B02C01A5241CDD2C3098B4201D3CB01F1
:101DA000C01A524183098B4201D38B01C01A5241A0
:101DB00043098B4201D34B01C01A524103098B42A4
:101DC00001D30B01C01A5241C3088B4201D3CB008F
:101DD000C01A524183088B4201D38B00C01A524172
:101DE00043088B4201D34B00C01A5241411A00D222
:101DF00001465241104670475DE0CA0F00D049428B
:101E0000031000D34042534000229C4603098B42FA
:101E10002DD3030A8B4212D3FC22890112BA030A82
:101E20008B420CD3890192118B4208D38901921104
:101E30008B4204D389013AD0921100E08909C30989
:101E40008B4201D3CB01C01A524183098B4201D38B
:101E50008B01C01A524143098B4201D34B01C01A76
:101E6000524103098B4201D30B01C01A5241C308EE
:101E70008B4201D3CB00C01A524183088B4201D35D
:101E80008B00C01A5241D9D243088B4201D34B0078
:101E9000C01A5241411A00D20146634652415B10BA
:101EA000104601D34042002B00D54942704763469B
:101EB0005B1000D3404201B5002000F005F802BDE0
:101EC0000029F8D016E770477047C0461C2101234F
:101ED0001B04984201D3000C10391B0A984201D30D
:101EE000000A08391B09984201D30009043902A2EB
:101EF000105C40187047C046040302020101010152
:101F000000000000000000000E4B70B500251E0010
:101F10000D4CE41AA410A54204D0AB00F358984726
:101F20000135F8E700F052F9084B00251E00084C77
:101F3000E41AA410A54204D0AB00F3589847013529
:101F4000F8E770BDD8210000D8210000D82100009A
:101F5000DC210000002310B59A4203D0CC5CC454AD
:101F60000133F9E710BD02000400060008000A0072
:101F70000C000E001000140018001C0020002800A7
:101F80003000380040005000600070008000A00069
:101F9000C000E000000140018001C0010002800299
:101FA0000003001020304050607041516171425276
:101FB0006272435363734454647445556575465661
:101FC0003480044000004000001110002D07000084
:101FD0000C08000000020000000200000B070000D7
:101FE00040020000000200000D0E00004002000050
:101FF000000200000A0200000002000000020000CF
:1020000001010000420000F840A00440010000006F
:10201000420000F844A0044002000000C00000F8A4
:1020200000C0044001000000000000F804900440DB
:1020300002000000000000F80890044004000000C6
:10204000C00000F81CC0044080000000C00000F880
:1020500010C0044010000000C00000F808C0044098
:1020600004000000C00000F80CC00440080000009C
:10207000800000F80CB0044008000000800000F868
:1020800010B0044010000000800000F818B00440B8
:1020900040000000800000F81CB0044080000000F8
:1020A000800000F814B0044020000000C00000F8D8
:1020B00004C0044002000000800000F800B00440AA
:1020C00001000000400000F800A0044001000000F2
:1020D000400000F804A0044002000000400000F8A6
:1020E0000CA0044008000000400000F808A00440D4
:1020F00004000000C00000F814C0044020000000EC
:10210000C00000F818C0044040000000800000F843
:1021100004B0044002000000800000F808B0044051
:1021200004000000020100F850D00440100000003C
:10213000020100F854D0044020000000030100F820
:1021400078D00440400000000D0AFFFF00000000AE
:1021500000000000F9160000ED160000E516000072
:10216000DD160000D5160000CD160000C5160000D3
:10217000BD16000000151915000100005EFDFF1FCF
:10218000120000000002000088FDFF1F4300000055
:1021900000030000E2FDFF1F00000000010309042E
:1021A00070FDFF1F0000000002030904CCFDFF1FAB
:1021B0000000000003030904E6FDFF1F000000000B
:1021C000000000000000000000000000F8B5C0465C
:0C21D000F8BC08BC9E46704739040000B3
:0421DC00F8B5C0464C
:1021E00000600740C01F0000000000000000000069
:1021F00000000000000000000000000000000000DF
:102200000000000000000000FFFFFFFF542100005D
:1022100000000000E8030000000000000A041201B2
:10222000100102000040C016830473020102030182
:1022300018035400650065006E00730079006400A7
:10224000750069006E006F0009024300020100C0C2
:1022500032090400000102020100052400100105FA
:102260002401010104240206052406000107058259
:102270000310004009040100020A000000070503E2
:1022800002400000070584024000000016035500CC
:102290005300420020005300650072006900610095
:1022A0006C00040309040C0300000000000000009F
:0C22B00000000000000000000000000022
:00000001FF
